{
  "contractName": "Faucet",
  "abi": [
    {
      "inputs": [
        {
          "internalType": "uint256",
          "name": "",
          "type": "uint256"
        }
      ],
      "name": "funders",
      "outputs": [
        {
          "internalType": "address",
          "name": "",
          "type": "address"
        }
      ],
      "stateMutability": "view",
      "type": "function",
      "constant": true
    },
    {
      "stateMutability": "payable",
      "type": "receive",
      "payable": true
    },
    {
      "inputs": [],
      "name": "addFunds",
      "outputs": [],
      "stateMutability": "payable",
      "type": "function",
      "payable": true
    },
    {
      "inputs": [],
      "name": "getAllFunders",
      "outputs": [
        {
          "internalType": "address[]",
          "name": "",
          "type": "address[]"
        }
      ],
      "stateMutability": "view",
      "type": "function",
      "constant": true
    },
    {
      "inputs": [
        {
          "internalType": "uint8",
          "name": "index",
          "type": "uint8"
        }
      ],
      "name": "getFunderAtIndex",
      "outputs": [
        {
          "internalType": "address",
          "name": "",
          "type": "address"
        }
      ],
      "stateMutability": "view",
      "type": "function",
      "constant": true
    }
  ],
  "bytecode": "0x608060405234801561001057600080fd5b506104bc806100206000396000f3fe6080604052600436106100435760003560e01c80630a93cf331461004f5780636fbbb55d1461008c578063a26759cb146100b7578063dc0d3dff146100c15761004a565b3661004a57005b600080fd5b34801561005b57600080fd5b50610076600480360381019061007191906102dc565b6100fe565b6040516100839190610399565b60405180910390f35b34801561009857600080fd5b506100a1610157565b6040516100ae91906103b4565b60405180910390f35b6100bf6101e5565b005b3480156100cd57600080fd5b506100e860048036038101906100e391906102b3565b61024a565b6040516100f59190610399565b60405180910390f35b600080610109610157565b9050808360ff1681518110610147577f4e487b7100000000000000000000000000000000000000000000000000000000600052603260045260246000fd5b6020026020010151915050919050565b606060008054806020026020016040519081016040528092919081815260200182805480156101db57602002820191906000526020600020905b8160009054906101000a900473ffffffffffffffffffffffffffffffffffffffff1673ffffffffffffffffffffffffffffffffffffffff1681526020019060010190808311610191575b5050505050905090565b6000339080600181540180825580915050600190039060005260206000200160009091909190916101000a81548173ffffffffffffffffffffffffffffffffffffffff021916908373ffffffffffffffffffffffffffffffffffffffff160217905550565b6000818154811061025a57600080fd5b906000526020600020016000915054906101000a900473ffffffffffffffffffffffffffffffffffffffff1681565b60008135905061029881610458565b92915050565b6000813590506102ad8161046f565b92915050565b6000602082840312156102c557600080fd5b60006102d384828501610289565b91505092915050565b6000602082840312156102ee57600080fd5b60006102fc8482850161029e565b91505092915050565b6000610311838361031d565b60208301905092915050565b6103268161040f565b82525050565b6103358161040f565b82525050565b6000610346826103e6565b61035081856103fe565b935061035b836103d6565b8060005b8381101561038c5781516103738882610305565b975061037e836103f1565b92505060018101905061035f565b5085935050505092915050565b60006020820190506103ae600083018461032c565b92915050565b600060208201905081810360008301526103ce818461033b565b905092915050565b6000819050602082019050919050565b600081519050919050565b6000602082019050919050565b600082825260208201905092915050565b600061041a82610421565b9050919050565b600073ffffffffffffffffffffffffffffffffffffffff82169050919050565b6000819050919050565b600060ff82169050919050565b61046181610441565b811461046c57600080fd5b50565b6104788161044b565b811461048357600080fd5b5056fea264697066735822122074325d3232f68813fdd6a5dbd4027e46c8d4e1c678e0fc419b2d33830df26e6d64736f6c63430008040033",
  "immutableReferences": {},
  "source": "// SPDX-License-Identifier: MIT\npragma solidity >=0.4.22 <0.9.0;\n\ncontract Faucet {\n\n    // this is a special function\n    // it's called when you make a transaction that doesn't specify \n    // function name to call\n\n    // External function is part of the contract interface\n    // which means they can be called via contracts and other transactions\n\n    address[] public funders;\n\n    receive() external payable {}\n    function addFunds() external payable {\n        funders.push(msg.sender);\n    }\n\n    function getAllFunders() public view returns (address[] memory) {\n        return funders;\n    }\n\n    function getFunderAtIndex(uint8 index) external view returns (address) {\n        address[] memory _funders = getAllFunders();\n        return _funders[index];\n    }\n\n    // const instance = await Faucet.deployed()\n    // instance.addFunds({from: accounts[0], value: \"2\"})\n\n    // function justTesting() external pure returns(uint) {\n    //     return 2 + 2;\n    // }\n\n    // pure, view - read-only call, no gas fee\n    // view - it indicates that the function will not alter the storage state in any way\n    // pure - even more strict, indicating that it won't even read the storage state\n\n    // Transaction (can generate state changes) and require gas fee\n    // read-only call, no gas fee\n\n    // to talk to the node on the network you can make JSON-RPC http calls\n}\n\n// Block info\n// Nonce - a hash that when combined with the minHash proofs that\n// the block has gone through proof of work(POW)\n// 8 bytes => 64 bits",
  "sourcePath": "/Users/jk/Documents/GitHub/faucet/contracts/FaucetContract.sol",
  "compiler": {
    "name": "solc",
    "version": "0.8.4+commit.c7e474f2.Emscripten.clang"
  },
  "schemaVersion": "3.4.3",
  "updatedAt": "2021-12-01T05:21:22.540Z",
  "networkType": "ethereum",
  "devdoc": {
    "kind": "dev",
    "methods": {},
    "version": 1
  },
  "userdoc": {
    "kind": "user",
    "methods": {},
    "version": 1
  }
}