{
  "contractName": "Faucet",
  "abi": [
    {
      "inputs": [],
      "name": "numOfFunders",
      "outputs": [
        {
          "internalType": "uint256",
          "name": "",
          "type": "uint256"
        }
      ],
      "stateMutability": "view",
      "type": "function",
      "constant": true
    },
    {
      "inputs": [],
      "name": "owner",
      "outputs": [
        {
          "internalType": "address",
          "name": "",
          "type": "address"
        }
      ],
      "stateMutability": "view",
      "type": "function",
      "constant": true
    },
    {
      "stateMutability": "payable",
      "type": "receive",
      "payable": true
    },
    {
      "inputs": [],
      "name": "addFunds",
      "outputs": [],
      "stateMutability": "payable",
      "type": "function",
      "payable": true
    },
    {
      "inputs": [],
      "name": "test1",
      "outputs": [],
      "stateMutability": "nonpayable",
      "type": "function"
    },
    {
      "inputs": [],
      "name": "test2",
      "outputs": [],
      "stateMutability": "nonpayable",
      "type": "function"
    },
    {
      "inputs": [
        {
          "internalType": "uint256",
          "name": "withdrawAmount",
          "type": "uint256"
        }
      ],
      "name": "withdraw",
      "outputs": [],
      "stateMutability": "nonpayable",
      "type": "function"
    },
    {
      "inputs": [],
      "name": "getAllFunders",
      "outputs": [
        {
          "internalType": "address[]",
          "name": "",
          "type": "address[]"
        }
      ],
      "stateMutability": "view",
      "type": "function",
      "constant": true
    },
    {
      "inputs": [
        {
          "internalType": "uint8",
          "name": "index",
          "type": "uint8"
        }
      ],
      "name": "getFunderAtIndex",
      "outputs": [
        {
          "internalType": "address",
          "name": "",
          "type": "address"
        }
      ],
      "stateMutability": "view",
      "type": "function",
      "constant": true
    }
  ],
  "bytecode": "0x608060405234801561001057600080fd5b50336000806101000a81548173ffffffffffffffffffffffffffffffffffffffff021916908373ffffffffffffffffffffffffffffffffffffffff160217905550610a3b806100606000396000f3fe60806040526004361061007f5760003560e01c80636fbbb55d1161004e5780636fbbb55d1461011f5780638da5cb5b1461014a578063a26759cb14610175578063af7f2c9b1461017f57610086565b80630a93cf331461008b5780632e1a7d4d146100c857806366e41cb7146100f15780636b59084d1461010857610086565b3661008657005b600080fd5b34801561009757600080fd5b506100b260048036038101906100ad9190610684565b6101aa565b6040516100bf9190610796565b60405180910390f35b3480156100d457600080fd5b506100ef60048036038101906100ea919061065b565b6101ea565b005b3480156100fd57600080fd5b50610106610281565b005b34801561011457600080fd5b5061011d610311565b005b34801561012b57600080fd5b506101346103a1565b60405161014191906107b1565b60405180910390f35b34801561015657600080fd5b5061015f6104e7565b60405161016c9190610796565b60405180910390f35b61017d61050b565b005b34801561018b57600080fd5b5061019461062b565b6040516101a19190610813565b60405180910390f35b6000600360008360ff16815260200190815260200160002060009054906101000a900473ffffffffffffffffffffffffffffffffffffffff169050919050565b8067016345785d8a0000811115610236576040517f08c379a000000000000000000000000000000000000000000000000000000000815260040161022d906107f3565b60405180910390fd5b3373ffffffffffffffffffffffffffffffffffffffff166108fc839081150290604051600060405180830381858888f1935050505015801561027c573d6000803e3d6000fd5b505050565b60008054906101000a900473ffffffffffffffffffffffffffffffffffffffff1673ffffffffffffffffffffffffffffffffffffffff163373ffffffffffffffffffffffffffffffffffffffff161461030f576040517f08c379a0000000000000000000000000000000000000000000000000000000008152600401610306906107d3565b60405180910390fd5b565b60008054906101000a900473ffffffffffffffffffffffffffffffffffffffff1673ffffffffffffffffffffffffffffffffffffffff163373ffffffffffffffffffffffffffffffffffffffff161461039f576040517f08c379a0000000000000000000000000000000000000000000000000000000008152600401610396906107d3565b60405180910390fd5b565b6060600060015467ffffffffffffffff8111156103e7577f4e487b7100000000000000000000000000000000000000000000000000000000600052604160045260246000fd5b6040519080825280602002602001820160405280156104155781602001602082028036833780820191505090505b50905060005b6001548110156104df576003600082815260200190815260200160002060009054906101000a900473ffffffffffffffffffffffffffffffffffffffff16828281518110610492577f4e487b7100000000000000000000000000000000000000000000000000000000600052603260045260246000fd5b602002602001019073ffffffffffffffffffffffffffffffffffffffff16908173ffffffffffffffffffffffffffffffffffffffff168152505080806104d7906108c1565b91505061041b565b508091505090565b60008054906101000a900473ffffffffffffffffffffffffffffffffffffffff1681565b6000339050600260008273ffffffffffffffffffffffffffffffffffffffff1673ffffffffffffffffffffffffffffffffffffffff16815260200190815260200160002060009054906101000a900460ff1661062857600060016000815480929190610576906108c1565b9190505590506001600260008473ffffffffffffffffffffffffffffffffffffffff1673ffffffffffffffffffffffffffffffffffffffff16815260200190815260200160002060006101000a81548160ff021916908315150217905550816003600083815260200190815260200160002060006101000a81548173ffffffffffffffffffffffffffffffffffffffff021916908373ffffffffffffffffffffffffffffffffffffffff160217905550505b50565b60015481565b600081359050610640816109d7565b92915050565b600081359050610655816109ee565b92915050565b60006020828403121561066d57600080fd5b600061067b84828501610631565b91505092915050565b60006020828403121561069657600080fd5b60006106a484828501610646565b91505092915050565b60006106b983836106c5565b60208301905092915050565b6106ce81610878565b82525050565b6106dd81610878565b82525050565b60006106ee8261083e565b6106f88185610856565b93506107038361082e565b8060005b8381101561073457815161071b88826106ad565b975061072683610849565b925050600181019050610707565b5085935050505092915050565b600061074e602183610867565b915061075982610939565b604082019050919050565b6000610771602383610867565b915061077c82610988565b604082019050919050565b610790816108aa565b82525050565b60006020820190506107ab60008301846106d4565b92915050565b600060208201905081810360008301526107cb81846106e3565b905092915050565b600060208201905081810360008301526107ec81610741565b9050919050565b6000602082019050818103600083015261080c81610764565b9050919050565b60006020820190506108286000830184610787565b92915050565b6000819050602082019050919050565b600081519050919050565b6000602082019050919050565b600082825260208201905092915050565b600082825260208201905092915050565b60006108838261088a565b9050919050565b600073ffffffffffffffffffffffffffffffffffffffff82169050919050565b6000819050919050565b600060ff82169050919050565b60006108cc826108aa565b91507fffffffffffffffffffffffffffffffffffffffffffffffffffffffffffffffff8214156108ff576108fe61090a565b5b600182019050919050565b7f4e487b7100000000000000000000000000000000000000000000000000000000600052601160045260246000fd5b7f4f6e6c79206f776e65722063616e2063616c6c20746869732066756e6374696f60008201527f6e00000000000000000000000000000000000000000000000000000000000000602082015250565b7f43616e6e6f74207769746864726177206d6f7265207468616e20302e3120657460008201527f6865720000000000000000000000000000000000000000000000000000000000602082015250565b6109e0816108aa565b81146109eb57600080fd5b50565b6109f7816108b4565b8114610a0257600080fd5b5056fea2646970667358221220a3769c9f2ba58636657c9e49e95f940ae2880a3eedbe3dd1136b25966cf435b564736f6c63430008040033",
  "immutableReferences": {},
  "source": "// SPDX-License-Identifier: MIT\npragma solidity >=0.4.22 <0.9.0;\n\nimport \"./Owned.sol\";\n\ncontract Faucet is Owned {\n\n    // this is a special function\n    // it's called when you make a transaction that doesn't specify \n    // function name to call\n\n    // External function is part of the contract interface\n    // which means they can be called via contracts and other transactions\n\n    uint public numOfFunders;\n    // address public owner;\n    mapping(address => bool) private funders;\n    mapping(uint => address) private lutFunders;\n\n    // constructor() {\n    //     owner = msg.sender;\n    // }\n\n    // modifier onlyOwner {\n    //     require(\n    //         msg.sender == owner,\n    //         \"Only owner can call this function\"\n    //     );\n    //     _;\n    // }\n\n    modifier limitWithdraw(uint withdrawAmount) {\n        require(\n            withdrawAmount <= 100000000000000000, \n            \"Cannot withdraw more than 0.1 ether\"\n        );\n        _;\n    }\n\n    receive() external payable {}\n\n    // function transferOwnership(address newOwner) external onlyOwner{\n    //     owner = newOwner;\n    // }\n\n    function addFunds() external payable {\n        // uint index = numOfFunders++;\n        // funders[index] = msg.sender;\n        address funder = msg.sender;\n        if (!funders[funder]) {\n            uint index = numOfFunders++;\n            funders[funder] = true;\n            lutFunders[index] = funder;\n        }\n    }\n\n    function test1() external onlyOwner {\n        // some managing stuff that only admin should have access to\n    }\n\n    function test2() external onlyOwner{\n        // some managing stuff that only admin should have access to\n    }\n\n    function withdraw(uint withdrawAmount) external limitWithdraw(withdrawAmount) {\n        // require(withdrawAmount <= 100000000000000000, \"Cannot withdraw more than 0.1 ether\");\n        // if (withdrawAmount < 1000000000000000000) {\n        payable(msg.sender).transfer(withdrawAmount);\n        // }\n    }\n\n    function getAllFunders() external view returns (address[] memory) {\n        address[] memory _funders = new address[](numOfFunders);\n\n        for (uint i = 0; i < numOfFunders; i++) {\n            _funders[i] = lutFunders[i];\n        }\n\n        return _funders;\n    }\n\n    // function getAllFunders() public view returns (address[] memory) {\n    //     return funders;\n    // }\n\n    function getFunderAtIndex(uint8 index) external view returns (address) {\n        // address[] memory _funders = getAllFunders();\n        return lutFunders[index];\n    }\n\n    // const instance = await Faucet.deployed()\n    // instance.addFunds({from: accounts[0], value: \"2000000000000000000\"})\n    // instance.getFunderAtIndex(1)\n    // instance.withdraw(\"500000000000000000\", {from: accounts[1]})\n\n    // function justTesting() external pure returns(uint) {\n    //     return 2 + 2;\n    // }\n\n    // pure, view - read-only call, no gas fee\n    // view - it indicates that the function will not alter the storage state in any way\n    // pure - even more strict, indicating that it won't even read the storage state\n\n    // Transaction (can generate state changes) and require gas fee\n    // read-only call, no gas fee\n\n    // to talk to the node on the network you can make JSON-RPC http calls\n}\n\n// Block info\n// Nonce - a hash that when combined with the minHash proofs that\n// the block has gone through proof of work(POW)\n// 8 bytes => 64 bits",
  "sourcePath": "/Users/jk/Documents/GitHub/faucet/contracts/FaucetContract.sol",
  "compiler": {
    "name": "solc",
    "version": "0.8.4+commit.c7e474f2.Emscripten.clang"
  },
  "schemaVersion": "3.4.3",
  "updatedAt": "2021-12-06T02:39:56.803Z",
  "networkType": "ethereum",
  "devdoc": {
    "kind": "dev",
    "methods": {},
    "version": 1
  },
  "userdoc": {
    "kind": "user",
    "methods": {},
    "version": 1
  }
}