{
  "contractName": "Faucet",
  "abi": [
    {
      "stateMutability": "payable",
      "type": "receive",
      "payable": true
    },
    {
      "inputs": [],
      "name": "addFunds",
      "outputs": [],
      "stateMutability": "payable",
      "type": "function",
      "payable": true
    },
    {
      "inputs": [],
      "name": "justTesting",
      "outputs": [
        {
          "internalType": "uint256",
          "name": "",
          "type": "uint256"
        }
      ],
      "stateMutability": "pure",
      "type": "function",
      "constant": true
    }
  ],
  "bytecode": "0x608060405234801561001057600080fd5b5060d38061001f6000396000f3fe60806040526004361060295760003560e01c8063a23f8a3d146034578063a26759cb14605a57602f565b36602f57005b600080fd5b348015603f57600080fd5b5060466062565b60405160519190607a565b60405180910390f35b6060606b565b005b60006004905090565b565b6074816093565b82525050565b6000602082019050608d6000830184606d565b92915050565b600081905091905056fea2646970667358221220cb3022f4ffe589a55bf28645ba7d5f062ffe65aecd8011bcfee964bda12bf8f664736f6c63430008040033",
  "immutableReferences": {},
  "source": "// SPDX-License-Identifier: MIT\npragma solidity >=0.4.22 <0.9.0;\n\ncontract Faucet {\n\n    // this is a special function\n    // it's called when you make a transaction that doesn't specify \n    // function name to call\n\n    // External function is part of the contract interface\n    // which means they can be called via contracts and other transactions\n\n    receive() external payable {}\n    function addFunds() external payable {}\n\n    function justTesting() external pure returns(uint) {\n        return 2 + 2;\n    }\n\n    // pure, view - read-only call, no gas fee\n    // view - it indicates that the function will not alter the storage state in any way\n    // pure - even more strict, indicating that it won't even read the storage state\n\n    // Transaction (can generate state changes) and require gas fee\n    // read-only call, no gas fee\n}\n\n// Block info\n// Nonce - a hash that when combined with the minHash proofs that\n// the block has gone through proof of work(POW)\n// 8 bytes => 64 bits",
  "sourcePath": "/Users/jk/Documents/GitHub/faucet/contracts/FaucetContract.sol",
  "compiler": {
    "name": "solc",
    "version": "0.8.4+commit.c7e474f2.Emscripten.clang"
  },
  "schemaVersion": "3.4.3",
  "updatedAt": "2021-11-30T07:31:17.595Z",
  "networkType": "ethereum",
  "devdoc": {
    "kind": "dev",
    "methods": {},
    "version": 1
  },
  "userdoc": {
    "kind": "user",
    "methods": {},
    "version": 1
  }
}