{
  "contractName": "Faucet",
  "abi": [
    {
      "inputs": [],
      "name": "numOfFunders",
      "outputs": [
        {
          "internalType": "uint256",
          "name": "",
          "type": "uint256"
        }
      ],
      "stateMutability": "view",
      "type": "function",
      "constant": true
    },
    {
      "inputs": [],
      "name": "owner",
      "outputs": [
        {
          "internalType": "address",
          "name": "",
          "type": "address"
        }
      ],
      "stateMutability": "view",
      "type": "function",
      "constant": true
    },
    {
      "inputs": [],
      "name": "test3",
      "outputs": [
        {
          "internalType": "uint256",
          "name": "",
          "type": "uint256"
        }
      ],
      "stateMutability": "pure",
      "type": "function",
      "constant": true
    },
    {
      "inputs": [],
      "name": "testNum",
      "outputs": [
        {
          "internalType": "uint256",
          "name": "",
          "type": "uint256"
        }
      ],
      "stateMutability": "view",
      "type": "function",
      "constant": true
    },
    {
      "stateMutability": "payable",
      "type": "receive",
      "payable": true
    },
    {
      "inputs": [],
      "name": "emitLog",
      "outputs": [
        {
          "internalType": "bytes32",
          "name": "",
          "type": "bytes32"
        }
      ],
      "stateMutability": "pure",
      "type": "function",
      "constant": true
    },
    {
      "inputs": [],
      "name": "addFunds",
      "outputs": [],
      "stateMutability": "payable",
      "type": "function",
      "payable": true
    },
    {
      "inputs": [],
      "name": "test1",
      "outputs": [],
      "stateMutability": "nonpayable",
      "type": "function"
    },
    {
      "inputs": [],
      "name": "test2",
      "outputs": [],
      "stateMutability": "nonpayable",
      "type": "function"
    },
    {
      "inputs": [
        {
          "internalType": "uint256",
          "name": "withdrawAmount",
          "type": "uint256"
        }
      ],
      "name": "withdraw",
      "outputs": [],
      "stateMutability": "nonpayable",
      "type": "function"
    },
    {
      "inputs": [],
      "name": "getAllFunders",
      "outputs": [
        {
          "internalType": "address[]",
          "name": "",
          "type": "address[]"
        }
      ],
      "stateMutability": "view",
      "type": "function",
      "constant": true
    },
    {
      "inputs": [
        {
          "internalType": "uint8",
          "name": "index",
          "type": "uint8"
        }
      ],
      "name": "getFunderAtIndex",
      "outputs": [
        {
          "internalType": "address",
          "name": "",
          "type": "address"
        }
      ],
      "stateMutability": "view",
      "type": "function",
      "constant": true
    }
  ],
  "bytecode": "0x608060405234801561001057600080fd5b50336000806101000a81548173ffffffffffffffffffffffffffffffffffffffff021916908373ffffffffffffffffffffffffffffffffffffffff1602179055506103e8600181905550610b48806100696000396000f3fe6080604052600436106100a05760003560e01c80636fbbb55d116100645780636fbbb55d1461016b5780638da5cb5b14610196578063a26759cb146101c1578063ae28f1ed146101cb578063af7f2c9b146101f6578063f42c13bf14610221576100a7565b80630a8e8e01146100ac5780630a93cf33146100d75780632e1a7d4d1461011457806366e41cb71461013d5780636b59084d14610154576100a7565b366100a757005b600080fd5b3480156100b857600080fd5b506100c161024c565b6040516100ce9190610916565b60405180910390f35b3480156100e357600080fd5b506100fe60048036038101906100f9919061075d565b610255565b60405161010b919061087e565b60405180910390f35b34801561012057600080fd5b5061013b60048036038101906101369190610734565b610295565b005b34801561014957600080fd5b5061015261032c565b005b34801561016057600080fd5b506101696103bc565b005b34801561017757600080fd5b5061018061044c565b60405161018d9190610899565b60405180910390f35b3480156101a257600080fd5b506101ab610592565b6040516101b8919061087e565b60405180910390f35b6101c96105b6565b005b3480156101d757600080fd5b506101e06106d6565b6040516101ed9190610916565b60405180910390f35b34801561020257600080fd5b5061020b6106dc565b6040516102189190610916565b60405180910390f35b34801561022d57600080fd5b506102366106e2565b60405161024391906108bb565b60405180910390f35b60006064905090565b6000600460008360ff16815260200190815260200160002060009054906101000a900473ffffffffffffffffffffffffffffffffffffffff169050919050565b8067016345785d8a00008111156102e1576040517f08c379a00000000000000000000000000000000000000000000000000000000081526004016102d8906108f6565b60405180910390fd5b3373ffffffffffffffffffffffffffffffffffffffff166108fc839081150290604051600060405180830381858888f19350505050158015610327573d6000803e3d6000fd5b505050565b60008054906101000a900473ffffffffffffffffffffffffffffffffffffffff1673ffffffffffffffffffffffffffffffffffffffff163373ffffffffffffffffffffffffffffffffffffffff16146103ba576040517f08c379a00000000000000000000000000000000000000000000000000000000081526004016103b1906108d6565b60405180910390fd5b565b60008054906101000a900473ffffffffffffffffffffffffffffffffffffffff1673ffffffffffffffffffffffffffffffffffffffff163373ffffffffffffffffffffffffffffffffffffffff161461044a576040517f08c379a0000000000000000000000000000000000000000000000000000000008152600401610441906108d6565b60405180910390fd5b565b6060600060025467ffffffffffffffff811115610492577f4e487b7100000000000000000000000000000000000000000000000000000000600052604160045260246000fd5b6040519080825280602002602001820160405280156104c05781602001602082028036833780820191505090505b50905060005b60025481101561058a576004600082815260200190815260200160002060009054906101000a900473ffffffffffffffffffffffffffffffffffffffff1682828151811061053d577f4e487b7100000000000000000000000000000000000000000000000000000000600052603260045260246000fd5b602002602001019073ffffffffffffffffffffffffffffffffffffffff16908173ffffffffffffffffffffffffffffffffffffffff16815250508080610582906109ce565b9150506104c6565b508091505090565b60008054906101000a900473ffffffffffffffffffffffffffffffffffffffff1681565b6000339050600360008273ffffffffffffffffffffffffffffffffffffffff1673ffffffffffffffffffffffffffffffffffffffff16815260200190815260200160002060009054906101000a900460ff166106d357600060026000815480929190610621906109ce565b9190505590506001600360008473ffffffffffffffffffffffffffffffffffffffff1673ffffffffffffffffffffffffffffffffffffffff16815260200190815260200160002060006101000a81548160ff021916908315150217905550816004600083815260200190815260200160002060006101000a81548173ffffffffffffffffffffffffffffffffffffffff021916908373ffffffffffffffffffffffffffffffffffffffff160217905550505b50565b60015481565b60025481565b60007f48656c6c6f20576f726c64000000000000000000000000000000000000000000905090565b60008135905061071981610ae4565b92915050565b60008135905061072e81610afb565b92915050565b60006020828403121561074657600080fd5b60006107548482850161070a565b91505092915050565b60006020828403121561076f57600080fd5b600061077d8482850161071f565b91505092915050565b6000610792838361079e565b60208301905092915050565b6107a78161097b565b82525050565b6107b68161097b565b82525050565b60006107c782610941565b6107d18185610959565b93506107dc83610931565b8060005b8381101561080d5781516107f48882610786565b97506107ff8361094c565b9250506001810190506107e0565b5085935050505092915050565b6108238161098d565b82525050565b600061083660218361096a565b915061084182610a46565b604082019050919050565b600061085960238361096a565b915061086482610a95565b604082019050919050565b610878816109b7565b82525050565b600060208201905061089360008301846107ad565b92915050565b600060208201905081810360008301526108b381846107bc565b905092915050565b60006020820190506108d0600083018461081a565b92915050565b600060208201905081810360008301526108ef81610829565b9050919050565b6000602082019050818103600083015261090f8161084c565b9050919050565b600060208201905061092b600083018461086f565b92915050565b6000819050602082019050919050565b600081519050919050565b6000602082019050919050565b600082825260208201905092915050565b600082825260208201905092915050565b600061098682610997565b9050919050565b6000819050919050565b600073ffffffffffffffffffffffffffffffffffffffff82169050919050565b6000819050919050565b600060ff82169050919050565b60006109d9826109b7565b91507fffffffffffffffffffffffffffffffffffffffffffffffffffffffffffffffff821415610a0c57610a0b610a17565b5b600182019050919050565b7f4e487b7100000000000000000000000000000000000000000000000000000000600052601160045260246000fd5b7f4f6e6c79206f776e65722063616e2063616c6c20746869732066756e6374696f60008201527f6e00000000000000000000000000000000000000000000000000000000000000602082015250565b7f43616e6e6f74207769746864726177206d6f7265207468616e20302e3120657460008201527f6865720000000000000000000000000000000000000000000000000000000000602082015250565b610aed816109b7565b8114610af857600080fd5b50565b610b04816109c1565b8114610b0f57600080fd5b5056fea2646970667358221220aa956c77bb8bcf1592cef6b7ca0cddad8a72e01c3cb05a229142341c4f52650c64736f6c63430008040033",
  "immutableReferences": {},
  "source": "// SPDX-License-Identifier: MIT\npragma solidity >=0.4.22 <0.9.0;\n\nimport \"./Owned.sol\";\nimport \"./Logger.sol\";\n\ncontract Faucet is Owned, Logger {\n\n    // this is a special function\n    // it's called when you make a transaction that doesn't specify \n    // function name to call\n\n    // External function is part of the contract interface\n    // which means they can be called via contracts and other transactions\n\n    uint public numOfFunders;\n    // address public owner;\n    mapping(address => bool) private funders;\n    mapping(uint => address) private lutFunders;\n\n    // constructor() {\n    //     owner = msg.sender;\n    // }\n\n    // modifier onlyOwner {\n    //     require(\n    //         msg.sender == owner,\n    //         \"Only owner can call this function\"\n    //     );\n    //     _;\n    // }\n\n    modifier limitWithdraw(uint withdrawAmount) {\n        require(\n            withdrawAmount <= 100000000000000000, \n            \"Cannot withdraw more than 0.1 ether\"\n        );\n        _;\n    }\n\n    function emitLog() public override pure returns(bytes32) {\n        return \"Hello World\";\n    }\n\n    receive() external payable {}\n\n    // function transferOwnership(address newOwner) external onlyOwner{\n    //     owner = newOwner;\n    // }\n\n    function addFunds() external payable {\n        // uint index = numOfFunders++;\n        // funders[index] = msg.sender;\n        address funder = msg.sender;\n        if (!funders[funder]) {\n            uint index = numOfFunders++;\n            funders[funder] = true;\n            lutFunders[index] = funder;\n        }\n    }\n\n    function test1() external onlyOwner {\n        // some managing stuff that only admin should have access to\n    }\n\n    function test2() external onlyOwner{\n        // some managing stuff that only admin should have access to\n    }\n\n    function withdraw(uint withdrawAmount) external limitWithdraw(withdrawAmount) {\n        // require(withdrawAmount <= 100000000000000000, \"Cannot withdraw more than 0.1 ether\");\n        // if (withdrawAmount < 1000000000000000000) {\n        payable(msg.sender).transfer(withdrawAmount);\n        // }\n    }\n\n    function getAllFunders() external view returns (address[] memory) {\n        address[] memory _funders = new address[](numOfFunders);\n\n        for (uint i = 0; i < numOfFunders; i++) {\n            _funders[i] = lutFunders[i];\n        }\n\n        return _funders;\n    }\n\n    // function getAllFunders() public view returns (address[] memory) {\n    //     return funders;\n    // }\n\n    function getFunderAtIndex(uint8 index) external view returns (address) {\n        // address[] memory _funders = getAllFunders();\n        return lutFunders[index];\n    }\n\n    // const instance = await Faucet.deployed()\n    // instance.addFunds({from: accounts[0], value: \"2000000000000000000\"})\n    // instance.getFunderAtIndex(1)\n    // instance.withdraw(\"500000000000000000\", {from: accounts[1]})\n\n    // function justTesting() external pure returns(uint) {\n    //     return 2 + 2;\n    // }\n\n    // pure, view - read-only call, no gas fee\n    // view - it indicates that the function will not alter the storage state in any way\n    // pure - even more strict, indicating that it won't even read the storage state\n\n    // Transaction (can generate state changes) and require gas fee\n    // read-only call, no gas fee\n\n    // to talk to the node on the network you can make JSON-RPC http calls\n}\n\n// Block info\n// Nonce - a hash that when combined with the minHash proofs that\n// the block has gone through proof of work(POW)\n// 8 bytes => 64 bits",
  "sourcePath": "/Users/jk/Documents/GitHub/faucet/contracts/FaucetContract.sol",
  "compiler": {
    "name": "solc",
    "version": "0.8.4+commit.c7e474f2.Emscripten.clang"
  },
  "schemaVersion": "3.4.3",
  "updatedAt": "2021-12-06T02:47:43.046Z",
  "networkType": "ethereum",
  "devdoc": {
    "kind": "dev",
    "methods": {},
    "version": 1
  },
  "userdoc": {
    "kind": "user",
    "methods": {},
    "version": 1
  }
}