{
  "contractName": "Test",
  "abi": [
    {
      "inputs": [
        {
          "internalType": "uint256",
          "name": "testNum",
          "type": "uint256"
        }
      ],
      "name": "test",
      "outputs": [
        {
          "internalType": "uint256",
          "name": "data",
          "type": "uint256"
        }
      ],
      "stateMutability": "pure",
      "type": "function"
    },
    {
      "inputs": [],
      "name": "test2",
      "outputs": [
        {
          "internalType": "uint256",
          "name": "data",
          "type": "uint256"
        }
      ],
      "stateMutability": "pure",
      "type": "function"
    }
  ],
  "bytecode": "0x608060405234801561001057600080fd5b506101a3806100206000396000f3fe608060405234801561001057600080fd5b50600436106100365760003560e01c806329e99f071461003b57806366e41cb71461006b575b600080fd5b610055600480360381019061005091906100f9565b610089565b6040516100629190610131565b60405180910390f35b6100736100c9565b6040516100809190610131565b60405180910390f35b6000609060405260006040518060600160405280600160ff168152602001600260ff168152602001600360ff168152509050602060900151915050919050565b60006040516468656c6c6f6000820152600081015191505090565b6000813590506100f381610156565b92915050565b60006020828403121561010b57600080fd5b6000610119848285016100e4565b91505092915050565b61012b8161014c565b82525050565b60006020820190506101466000830184610122565b92915050565b6000819050919050565b61015f8161014c565b811461016a57600080fd5b5056fea2646970667358221220b68bb3e1b457fb3cd59c8c15af0dee94c41f3d07f34a96e31100376d9ec3115864736f6c63430008040033",
  "immutableReferences": {},
  "source": "// SPDX-License-Identifier: MIT\npragma solidity >=0.4.22 <0.9.0;\n\n\ncontract Test {\n\n  function test(uint testNum) external pure returns (uint data) {\n\n    assembly {\n      mstore(0x40, 0x90)\n    }\n\n    uint8[3] memory items = [1,2,3];\n\n    assembly {\n      data := mload(add(0x90, 0x20))\n    }\n  }\n\n  function test2() external pure returns (uint data) {\n\n    assembly {\n      let fmp := mload(0x40)\n      // hello\n      mstore(add(fmp, 0x00), 0x68656C6C6F)\n      data := mload(add(fmp, 0x00))\n    }\n  }\n}\n\n// 0x40\n// 0x0000000000000000000000000000000000000000000000000000000000000080\n\n\n// 0x29e99f070000000000000000000000000000000000000000000000000000000000000003",
  "sourcePath": "/Users/jk/Documents/GitHub/faucet/contracts/Test.sol",
  "compiler": {
    "name": "solc",
    "version": "0.8.4+commit.c7e474f2.Emscripten.clang"
  },
  "schemaVersion": "3.4.3",
  "updatedAt": "2021-12-01T05:20:17.893Z",
  "devdoc": {
    "kind": "dev",
    "methods": {},
    "version": 1
  },
  "userdoc": {
    "kind": "user",
    "methods": {},
    "version": 1
  }
}